:100000001CC0FECFFDCFFCCFFBCFFACFF9CFF8CF8E
:10001000F7CFF6CFF5CFF4CFF3CFF2CFF1CFF0CFCC
:10002000EFCFEECFEDCFECCFEBCF3F065B4F666D62
:100030007C077F6F771F4E3D4F47F894EE27ECBB50
:10004000F1E0FBBFEBBFE5BF8DE0A2E0BB27ED9386
:100050008A95E9F780E092E0A0E6ED930197E9F751
:10006000EFE5EDBFE2E0EEBFC0EED0E000C0EFE7AD
:10007000EABBE0E0EBBBEFEFE7BBE0E0E8BBE4BBF3
:10008000EFE4E5BBE0E0E1BBEFE0E2BBE0E0E3BFD3
:10009000E2BFECBFEFBDEEBDEDBDECBDE7BDE6BD23
:1000A000EBBDEABDE9BDE8BDE2BDE5BDE4BDE3BD34
:1000B000E9BFE5BFE4BFEAB9E0E8E8B9E0E0E0BFE6
:1000C000E6B9EDB9E6BFE0B3EF705E2EE3B3EF70D3
:1000D0004E2E9E990FC0EAE05E1610F41BD002C0AF
:1000E000E9E7E8BBEAE04E1610F41BD001C0E6E8F1
:1000F000EBBB0EC0E0E15E1610F40CD002C0E9E7E5
:10010000E8BBE0E14E1610F40CD001C0E6E8EBBB12
:10011000DACFFFCFE52DF0E0E65DFF4F049008BA9F
:100120000895E42DF0E0E65DFF4FE491E095089539
:00000001FF
