:0A0000001EC0FECFFDCFFCCFFBCFEA
:10000A00FACFF9CFF8CFF7CFF6CFF5CFF4CFF3CFBA
:10001A00F2CFF1CFF0CFEFCFEECFEDCFECCFEBCFEA
:10002A003F065B4F666D7C077F6F00000100020090
:10003A0034000000F894EE27ECBBF1E0FBBFEBBF05
:10004A00E5BF8DE0A2E0BB27ED938A95E9F780E052
:10005A0092E0A0E6ED930197E9F7E6E3F0E08591F7
:10006A009591009761F0A591B59105901590BF0102
:10007A00F00105900D920197E1F7FB01F0CFEFE552
:10008A00EDBFE2E0EEBFC0EED0E000C0EFEFEABBAA
:10009A00E0E0EBBBEFEFE7BBE0E0E8BBEFEFE4BB90
:1000AA00E0E0E5BBE1BBE7E0E2BBE0E0E3BFE2BFE3
:1000BA00ECBFEFBDEEBDEDBDECBDE7BDE6BDEBBDF2
:1000CA00EABDE9BDE8BDE2BDE5BDE4BDE3BDE9BF0A
:1000DA00E5BFE4BFEAB9E0E8E8B9E0E0E0BFE6B9C5
:1000EA00EDB9E6BF20FE12C05394EAE0E51559F4D3
:1000FA0055244394E41539F444247394E71519F408
:10010A007724E89420F8A8E2B0E020D0809903C0D0
:10011A00552444247724819902C0E89420F88299CE
:10012A0002C0689420F8A8E2B0E010D0E72D09D008
:10013A0008BAE42D06D00BBAE52D03D005BAD2CF02
:10014A00FFCFF0E0E65DFF4F04900895109639F076
:10015A00A8958AEF90E00197F1F71197C9F70895EA
:00000001FF
